:060000000C9446000C9474
:1000060073000C9400000C9400000C9400000C94F7
:1000160000000C9400000C9400000C9400000C945A
:1000260000000C9400000C9400000C9400000C944A
:1000360000000C9400000C9400000C9400000C943A
:1000460000000C9400000C9400000C940000102793
:10005600E80364000A00010000100001100001001E
:10006600486561727452617465202862706D293A20
:1000760000202020202020253036750080C0020078
:10008600740182000000F894EE27ECBBF1E0FBBFA0
:10009600EBBFE5BF8DE0A2E0BB27ED938A95E9F7BC
:1000A60080E094E0A0E6ED930197E9F7E4E8F0E05C
:1000B60085919591009761F0A591B5910590159060
:1000C600BF01F00105900D920197E1F7FB01F0CF1A
:1000D600EFE5EDBFE4E0EEBFC0E6D1E00C948800AA
:1000E600AA93EA93FA93EFB7EA93ECB5AE2FEDB580
:1000F600FE2FE0E0EA2B2F01E0E0EDBDECBDE9913B
:10010600EFBFF991E991A9911895E0E0EABBEBBB45
:10011600E7BBE8BBE4BBE5BBE1BBE2BBE3BFE2BFD9
:10012600ECBFEFBDE5E0EEBDE0E0EDBDECBDE7BD4B
:10013600E6BDEBBDEABDE9BDE8BDE2BDE5BDE4BD9A
:10014600E3BDE9BFEBB7E064EBBFE3E0E5BFE0E0AA
:10015600E4BFE0E4EABFE0E0EAB9E0E8E8B9E0E0FD
:10016600E0BFE6B9EDB9E6BFA0E10E940F037894BF
:10017600E0E0EA93A0E00E94BF02A6E6B0E00E949B
:10018600FC02E0E0EA93A1E00E94BF02E0E6F1E0B3
:10019600FA93EA93E7E7F0E0FA93EA93F201662727
:1001A6007727ACE2B7E287E090E00E94D0030E9496
:1001B600F00384E00E945A022896A0E6B1E00E946D
:1001C600ED02D6CFFFCFBA93AA931A930A93AA81C8
:1001D600BB8112960E94E803309759F1AA81BB8130
:1001E60014960E94E8038F01309761F00230E0E038
:1001F6001E0798F0F80131978F01AA81BB811496EA
:10020600ED93FC93AA81BB811296ED91FD913196F7
:10021600FE93EE933197AC81A083AA81BB810E94A5
:10022600E803FF232AF0ED91FD913196FE93EE93BC
:1002360006C0AA81BB81EFEFFFEFED93FC93198116
:10024600088125960895BA93AA9326970E94F503E6
:1002560010E0AC85BD85E0E0F0E0ED93FC93EA8923
:10026600FB893196EA8BFB8B3197E4912E2FE03098
:1002760009F415C1E12FE03039F4253211F411E00B
:1002860002C00E9457030AC1E130A9F4253219F4CD
:100296000E94570302C112E040E000E02D3211F443
:1002A60001E0FCC02B3211F44BE2F8C0203211F40D
:1002B60040E2F4C002C0E23039F450E013E02033EB
:1002C60011F40068EBC003C0E33009F0E7C0203347
:1002D60010F02A3308F007C0AAE05A9F502DE22FEB
:1002E600E0535E0FDBC0E22FE33649F40E945E0363
:1002F600E889F989A481AA930E946403CEC0E337F2
:1003060041F40E945E030E946A030E943E031E2F70
:100316000AC0E03761F40E945E030E946A030E94ED
:100326004A031E2F086002600F7730E034C0E436BF
:1003360011F0E93611F4046002C0E53731F4E4E562
:10034600F0E0EE83FF8315E00CC0E83511F4086099
:1003560003C0E83709F0A1C0EEE5F0E0EE83FF83C5
:1003660014E002FF14C00E945E030E947403AB8572
:10037600AA233AF4EA85FB850E949F03EA87FB8756
:100386004DE2403011F01F5F01C00B7F04C00E9498
:100396005E030E94740300FD11C0151778F407FF71
:1003A60008C002FF04C00B7F242F115001C020E3B8
:1003B60001C020E20E9457035150EFCF312F01FFB9
:1003C60017C03030A1F003FF06C0EE81FF812591F2
:1003D600EE83FF8305C0AE81BF812D91AE83BF83BF
:1003E6000E945703503009F051503150EACF4BC0AC
:1003F60020E3EE81FF810E94EC03E887F987EE8116
:10040600FF813296EE83FF83E885F985AA85BB8551
:10041600AE17BF0750F02F5FA885B985EA85FB8523
:10042600EA1BFB0BEA87FB87EFCF2A3328F003FF93
:1004360002C0295F01C0295D04FD1AC0213320F4E2
:10044600A885B985119709F409C0531710F000FF64
:1004560001C013C020E207FF0BC020E3006102FFCA
:1004660007C00B7F4A930E946403503009F0515035
:100476000E945703503009F051503150A885B98574
:10048600129708F0B5CF00FF08C0503031F0515038
:10049600E0E2EA930E946403F8CF10E0E0CEAC8578
:1004A600BD850E94E8030E94FC0364960895FF92AE
:1004B600F82E26970E94F7030E947C03309719F4C2
:1004C600EFEFFFEF23C0DE0116960E949B038D011E
:1004D6000E947C03EE83FF83E0E0E887E987DE0184
:1004E6001A960E949B030E94E803FA93EA931A93D2
:1004F6000A93E6EEF0E0FA93EA93DE011A96A3DE9B
:100506009F01AE81BF81E0E0EC93F9010E94FE03FA
:100516002A96FF900895AA93E881E07111F0AA9AAD
:1005260001C0AA98E881E07211F0AB9A01C0AB98BD
:10053600E881E07411F0AC9A01C0AC98E881E078EB
:1005460011F0AD9A01C0AD988DE08A95F1F7A99AA0
:100556008DE08A95F1F7A9988DE08A95F1F789C023
:10056600AA93A881D8DFE881E295E883A881D3DF42
:1005760085E88A95F1F77DC0AA93E881F0E0EC580A
:10058600FE4FE081A981AE0FEBDF7980688022966D
:100596000895A2E00E948303ACE0E2DFA1E00E949E
:1005A6008303E0E06E2E7E2E0895AA93A881AA30DA
:1005B60011F0791448F0E0E0EA936394A62DDCDFAD
:1005C600A881AA3009F455C07394A89AA881C8DFF7
:1005D600A8984FC0BA93AA931A93A981BA81ED91AC
:1005E600A983BA831E2FE03019F0A12FDEDFF5CFE5
:1005F60010C0BA93AA931A93E981FA813196E983D6
:10060600FA833197E4911E2FE03019F0A12FCDDF48
:10061600F3CF188123960895AA93A29AA39AA49A2F
:10062600A59AA19AA09A899AA998A898919898802B
:10063600E881E058E0937601E881E054E0937701A1
:10064600A4E1B0E00E9491030E9489030E948903FD
:100656000E948903A0E25FDF88EC90E00197F1F742
:10066600A8E27EDFA4E07CDFA5E87ADFA6E078DFFB
:1006760090DF21960895BA93AA93A991B991EE278E
:10068600FF276D91662311F03196FBCF0895BA933B
:10069600AA93AA27BB27E991F9910590002011F0AA
:1006A6001196FBCFFD0108952A93AD85BE85EF8592
:1006B600F88909950895E889F9893497E88BF98BC3
:1006C6000895AD85BE85EF85F88909950895A889B1
:1006D600B98914960E94E803EE83FF83AE81BF8139
:1006E6000895A889B98914960E94E803EA87FB87CA
:1006F6000895DE011C960E949B030E94E80308955C
:100706000E94B302A3E0B0E00C949103A0E30E9420
:100716008E0288EC90E00197F1F70895109639F073
:1007260080ED97E00197F1F7A8951197C9F708951D
:100736000024AF0DB01D0895F195E195F0400895A0
:10074600F09560957095E195FF4F6F4F7F4F089537
:100756003F934F935F93002411244427552730E29B
:10076600AA0FBB1F881F991F001C111C441F551F71
:100776000E1A1F0A460B570B28F40E0E1F1E461F95
:10078600571F01C0A1603A9559F7FD01BC01D00180
:10079600CA015F914F913F91089504D0D9DF0EF4BD
:1007A600CFDF0895E89477FF02C0CADF689497FF09
:1007B6000BC00024A095B095809590951196801D4C
:1007C600901D00F8039400FA0895ED91FC9111979D
:1007D60008950590F491E02D08957A936A93FA931B
:1007E600EA9308955A934A933A932A931A930A934B
:1007F60008955D814C813B812A8119810881089584
:00000001FF
